{
    "contractName": "UniswapETH",
    "abi": [
        {
            "inputs": [
                {
                    "internalType": "address",
                    "name": "tokenAddr",
                    "type": "address"
                }
            ],
            "payable": false,
            "stateMutability": "nonpayable",
            "type": "constructor"
        },
        {
            "anonymous": false,
            "inputs": [
                {
                    "indexed": true,
                    "internalType": "address",
                    "name": "provider",
                    "type": "address"
                },
                {
                    "indexed": true,
                    "internalType": "uint256",
                    "name": "ethAmount",
                    "type": "uint256"
                },
                {
                    "indexed": true,
                    "internalType": "uint256",
                    "name": "tokenAmount",
                    "type": "uint256"
                }
            ],
            "name": "AddLiquidity",
            "type": "event"
        },
        {
            "anonymous": false,
            "inputs": [
                {
                    "indexed": true,
                    "internalType": "address",
                    "name": "owner",
                    "type": "address"
                },
                {
                    "indexed": true,
                    "internalType": "address",
                    "name": "spender",
                    "type": "address"
                },
                {
                    "indexed": false,
                    "internalType": "uint256",
                    "name": "value",
                    "type": "uint256"
                }
            ],
            "name": "Approval",
            "type": "event"
        },
        {
            "anonymous": false,
            "inputs": [
                {
                    "indexed": true,
                    "internalType": "address",
                    "name": "buyer",
                    "type": "address"
                },
                {
                    "indexed": true,
                    "internalType": "uint256",
                    "name": "tokensSold",
                    "type": "uint256"
                },
                {
                    "indexed": true,
                    "internalType": "uint256",
                    "name": "ethBought",
                    "type": "uint256"
                }
            ],
            "name": "EthPurchase",
            "type": "event"
        },
        {
            "anonymous": false,
            "inputs": [
                {
                    "indexed": true,
                    "internalType": "address",
                    "name": "provider",
                    "type": "address"
                },
                {
                    "indexed": true,
                    "internalType": "uint256",
                    "name": "ethAmount",
                    "type": "uint256"
                },
                {
                    "indexed": true,
                    "internalType": "uint256",
                    "name": "tokenAmount",
                    "type": "uint256"
                }
            ],
            "name": "RemoveLiquidity",
            "type": "event"
        },
        {
            "anonymous": false,
            "inputs": [
                {
                    "indexed": true,
                    "internalType": "address",
                    "name": "buyer",
                    "type": "address"
                },
                {
                    "indexed": true,
                    "internalType": "uint256",
                    "name": "ethSold",
                    "type": "uint256"
                },
                {
                    "indexed": true,
                    "internalType": "uint256",
                    "name": "tokensBought",
                    "type": "uint256"
                }
            ],
            "name": "TokenPurchase",
            "type": "event"
        },
        {
            "anonymous": false,
            "inputs": [
                {
                    "indexed": true,
                    "internalType": "address",
                    "name": "from",
                    "type": "address"
                },
                {
                    "indexed": true,
                    "internalType": "address",
                    "name": "to",
                    "type": "address"
                },
                {
                    "indexed": false,
                    "internalType": "uint256",
                    "name": "value",
                    "type": "uint256"
                }
            ],
            "name": "Transfer",
            "type": "event"
        },
        {
            "payable": true,
            "stateMutability": "payable",
            "type": "fallback"
        },
        {
            "constant": false,
            "inputs": [
                {
                    "internalType": "uint256",
                    "name": "minLiquidity",
                    "type": "uint256"
                },
                {
                    "internalType": "uint256",
                    "name": "maxTokens",
                    "type": "uint256"
                },
                {
                    "internalType": "uint256",
                    "name": "deadline",
                    "type": "uint256"
                }
            ],
            "name": "addLiquidity",
            "outputs": [
                {
                    "internalType": "uint256",
                    "name": "",
                    "type": "uint256"
                }
            ],
            "payable": true,
            "stateMutability": "payable",
            "type": "function"
        },
        {
            "constant": true,
            "inputs": [
                {
                    "internalType": "address",
                    "name": "",
                    "type": "address"
                },
                {
                    "internalType": "address",
                    "name": "",
                    "type": "address"
                }
            ],
            "name": "allowance",
            "outputs": [
                {
                    "internalType": "uint256",
                    "name": "",
                    "type": "uint256"
                }
            ],
            "payable": false,
            "stateMutability": "view",
            "type": "function"
        },
        {
            "constant": false,
            "inputs": [
                {
                    "internalType": "address",
                    "name": "spender",
                    "type": "address"
                },
                {
                    "internalType": "uint256",
                    "name": "value",
                    "type": "uint256"
                }
            ],
            "name": "approve",
            "outputs": [
                {
                    "internalType": "bool",
                    "name": "",
                    "type": "bool"
                }
            ],
            "payable": false,
            "stateMutability": "nonpayable",
            "type": "function"
        },
        {
            "constant": true,
            "inputs": [
                {
                    "internalType": "address",
                    "name": "",
                    "type": "address"
                }
            ],
            "name": "balanceOf",
            "outputs": [
                {
                    "internalType": "uint256",
                    "name": "",
                    "type": "uint256"
                }
            ],
            "payable": false,
            "stateMutability": "view",
            "type": "function"
        },
        {
            "constant": false,
            "inputs": [
                {
                    "internalType": "uint256",
                    "name": "value",
                    "type": "uint256"
                }
            ],
            "name": "burn",
            "outputs": [],
            "payable": false,
            "stateMutability": "nonpayable",
            "type": "function"
        },
        {
            "constant": true,
            "inputs": [],
            "name": "decimals",
            "outputs": [
                {
                    "internalType": "uint256",
                    "name": "",
                    "type": "uint256"
                }
            ],
            "payable": false,
            "stateMutability": "view",
            "type": "function"
        },
        {
            "constant": false,
            "inputs": [
                {
                    "internalType": "uint256",
                    "name": "minTokens",
                    "type": "uint256"
                },
                {
                    "internalType": "uint256",
                    "name": "deadline",
                    "type": "uint256"
                }
            ],
            "name": "ethToTokenSwapInput",
            "outputs": [
                {
                    "internalType": "uint256",
                    "name": "",
                    "type": "uint256"
                }
            ],
            "payable": true,
            "stateMutability": "payable",
            "type": "function"
        },
        {
            "constant": false,
            "inputs": [
                {
                    "internalType": "uint256",
                    "name": "tokensBought",
                    "type": "uint256"
                },
                {
                    "internalType": "uint256",
                    "name": "deadline",
                    "type": "uint256"
                }
            ],
            "name": "ethToTokenSwapOutput",
            "outputs": [
                {
                    "internalType": "uint256",
                    "name": "",
                    "type": "uint256"
                }
            ],
            "payable": true,
            "stateMutability": "payable",
            "type": "function"
        },
        {
            "constant": false,
            "inputs": [
                {
                    "internalType": "uint256",
                    "name": "minTokens",
                    "type": "uint256"
                },
                {
                    "internalType": "uint256",
                    "name": "deadline",
                    "type": "uint256"
                },
                {
                    "internalType": "address",
                    "name": "recipient",
                    "type": "address"
                }
            ],
            "name": "ethToTokenTransferInput",
            "outputs": [
                {
                    "internalType": "uint256",
                    "name": "",
                    "type": "uint256"
                }
            ],
            "payable": true,
            "stateMutability": "payable",
            "type": "function"
        },
        {
            "constant": false,
            "inputs": [
                {
                    "internalType": "uint256",
                    "name": "tokensBought",
                    "type": "uint256"
                },
                {
                    "internalType": "uint256",
                    "name": "deadline",
                    "type": "uint256"
                },
                {
                    "internalType": "address",
                    "name": "recipient",
                    "type": "address"
                }
            ],
            "name": "ethToTokenTransferOutput",
            "outputs": [
                {
                    "internalType": "uint256",
                    "name": "",
                    "type": "uint256"
                }
            ],
            "payable": true,
            "stateMutability": "payable",
            "type": "function"
        },
        {
            "constant": true,
            "inputs": [],
            "name": "factoryAddress",
            "outputs": [
                {
                    "internalType": "address",
                    "name": "",
                    "type": "address"
                }
            ],
            "payable": false,
            "stateMutability": "view",
            "type": "function"
        },
        {
            "constant": true,
            "inputs": [
                {
                    "internalType": "uint256",
                    "name": "ethSold",
                    "type": "uint256"
                }
            ],
            "name": "getEthToTokenInputPrice",
            "outputs": [
                {
                    "internalType": "uint256",
                    "name": "",
                    "type": "uint256"
                }
            ],
            "payable": false,
            "stateMutability": "view",
            "type": "function"
        },
        {
            "constant": true,
            "inputs": [
                {
                    "internalType": "uint256",
                    "name": "tokensBought",
                    "type": "uint256"
                }
            ],
            "name": "getEthToTokenOutputPrice",
            "outputs": [
                {
                    "internalType": "uint256",
                    "name": "",
                    "type": "uint256"
                }
            ],
            "payable": false,
            "stateMutability": "view",
            "type": "function"
        },
        {
            "constant": true,
            "inputs": [
                {
                    "internalType": "uint256",
                    "name": "inputAmount",
                    "type": "uint256"
                },
                {
                    "internalType": "uint256",
                    "name": "inputReserve",
                    "type": "uint256"
                },
                {
                    "internalType": "uint256",
                    "name": "outputReserve",
                    "type": "uint256"
                }
            ],
            "name": "getInputPrice",
            "outputs": [
                {
                    "internalType": "uint256",
                    "name": "",
                    "type": "uint256"
                }
            ],
            "payable": false,
            "stateMutability": "pure",
            "type": "function"
        },
        {
            "constant": true,
            "inputs": [
                {
                    "internalType": "uint256",
                    "name": "outputAmount",
                    "type": "uint256"
                },
                {
                    "internalType": "uint256",
                    "name": "inputReserve",
                    "type": "uint256"
                },
                {
                    "internalType": "uint256",
                    "name": "outputReserve",
                    "type": "uint256"
                }
            ],
            "name": "getOutputPrice",
            "outputs": [
                {
                    "internalType": "uint256",
                    "name": "",
                    "type": "uint256"
                }
            ],
            "payable": false,
            "stateMutability": "pure",
            "type": "function"
        },
        {
            "constant": true,
            "inputs": [
                {
                    "internalType": "uint256",
                    "name": "tokensSold",
                    "type": "uint256"
                }
            ],
            "name": "getTokenToEthInputPrice",
            "outputs": [
                {
                    "internalType": "uint256",
                    "name": "",
                    "type": "uint256"
                }
            ],
            "payable": false,
            "stateMutability": "view",
            "type": "function"
        },
        {
            "constant": true,
            "inputs": [
                {
                    "internalType": "uint256",
                    "name": "ethBought",
                    "type": "uint256"
                }
            ],
            "name": "getTokenToEthOutputPrice",
            "outputs": [
                {
                    "internalType": "uint256",
                    "name": "",
                    "type": "uint256"
                }
            ],
            "payable": false,
            "stateMutability": "view",
            "type": "function"
        },
        {
            "constant": true,
            "inputs": [],
            "name": "name",
            "outputs": [
                {
                    "internalType": "string",
                    "name": "",
                    "type": "string"
                }
            ],
            "payable": false,
            "stateMutability": "view",
            "type": "function"
        },
        {
            "constant": false,
            "inputs": [
                {
                    "internalType": "uint256",
                    "name": "amount",
                    "type": "uint256"
                },
                {
                    "internalType": "uint256",
                    "name": "minEth",
                    "type": "uint256"
                },
                {
                    "internalType": "uint256",
                    "name": "minTokens",
                    "type": "uint256"
                },
                {
                    "internalType": "uint256",
                    "name": "deadline",
                    "type": "uint256"
                }
            ],
            "name": "removeLiquidity",
            "outputs": [
                {
                    "internalType": "uint256",
                    "name": "",
                    "type": "uint256"
                },
                {
                    "internalType": "uint256",
                    "name": "",
                    "type": "uint256"
                }
            ],
            "payable": false,
            "stateMutability": "nonpayable",
            "type": "function"
        },
        {
            "constant": true,
            "inputs": [],
            "name": "symbol",
            "outputs": [
                {
                    "internalType": "string",
                    "name": "",
                    "type": "string"
                }
            ],
            "payable": false,
            "stateMutability": "view",
            "type": "function"
        },
        {
            "constant": true,
            "inputs": [],
            "name": "tokenAddress",
            "outputs": [
                {
                    "internalType": "address",
                    "name": "",
                    "type": "address"
                }
            ],
            "payable": false,
            "stateMutability": "view",
            "type": "function"
        },
        {
            "constant": false,
            "inputs": [
                {
                    "internalType": "uint256",
                    "name": "tokensSold",
                    "type": "uint256"
                },
                {
                    "internalType": "uint256",
                    "name": "minEth",
                    "type": "uint256"
                },
                {
                    "internalType": "uint256",
                    "name": "deadline",
                    "type": "uint256"
                }
            ],
            "name": "tokenToEthSwapInput",
            "outputs": [
                {
                    "internalType": "uint256",
                    "name": "",
                    "type": "uint256"
                }
            ],
            "payable": false,
            "stateMutability": "nonpayable",
            "type": "function"
        },
        {
            "constant": false,
            "inputs": [
                {
                    "internalType": "uint256",
                    "name": "ethBought",
                    "type": "uint256"
                },
                {
                    "internalType": "uint256",
                    "name": "maxTokens",
                    "type": "uint256"
                },
                {
                    "internalType": "uint256",
                    "name": "deadline",
                    "type": "uint256"
                }
            ],
            "name": "tokenToEthSwapOutput",
            "outputs": [
                {
                    "internalType": "uint256",
                    "name": "",
                    "type": "uint256"
                }
            ],
            "payable": false,
            "stateMutability": "nonpayable",
            "type": "function"
        },
        {
            "constant": false,
            "inputs": [
                {
                    "internalType": "uint256",
                    "name": "tokensSold",
                    "type": "uint256"
                },
                {
                    "internalType": "uint256",
                    "name": "minEth",
                    "type": "uint256"
                },
                {
                    "internalType": "uint256",
                    "name": "deadline",
                    "type": "uint256"
                },
                {
                    "internalType": "address payable",
                    "name": "recipient",
                    "type": "address"
                }
            ],
            "name": "tokenToEthTransferInput",
            "outputs": [
                {
                    "internalType": "uint256",
                    "name": "",
                    "type": "uint256"
                }
            ],
            "payable": false,
            "stateMutability": "nonpayable",
            "type": "function"
        },
        {
            "constant": false,
            "inputs": [
                {
                    "internalType": "uint256",
                    "name": "ethBought",
                    "type": "uint256"
                },
                {
                    "internalType": "uint256",
                    "name": "maxTokens",
                    "type": "uint256"
                },
                {
                    "internalType": "uint256",
                    "name": "deadline",
                    "type": "uint256"
                },
                {
                    "internalType": "address payable",
                    "name": "recipient",
                    "type": "address"
                }
            ],
            "name": "tokenToEthTransferOutput",
            "outputs": [
                {
                    "internalType": "uint256",
                    "name": "",
                    "type": "uint256"
                }
            ],
            "payable": false,
            "stateMutability": "nonpayable",
            "type": "function"
        },
        {
            "constant": false,
            "inputs": [
                {
                    "internalType": "uint256",
                    "name": "tokensSold",
                    "type": "uint256"
                },
                {
                    "internalType": "uint256",
                    "name": "minTokensBought",
                    "type": "uint256"
                },
                {
                    "internalType": "uint256",
                    "name": "minEthBought",
                    "type": "uint256"
                },
                {
                    "internalType": "uint256",
                    "name": "deadline",
                    "type": "uint256"
                },
                {
                    "internalType": "address",
                    "name": "tokenAddr",
                    "type": "address"
                }
            ],
            "name": "tokenToTokenSwapInput",
            "outputs": [
                {
                    "internalType": "uint256",
                    "name": "",
                    "type": "uint256"
                }
            ],
            "payable": false,
            "stateMutability": "nonpayable",
            "type": "function"
        },
        {
            "constant": false,
            "inputs": [
                {
                    "internalType": "uint256",
                    "name": "tokensBought",
                    "type": "uint256"
                },
                {
                    "internalType": "uint256",
                    "name": "maxTokensSold",
                    "type": "uint256"
                },
                {
                    "internalType": "uint256",
                    "name": "maxEthSold",
                    "type": "uint256"
                },
                {
                    "internalType": "uint256",
                    "name": "deadline",
                    "type": "uint256"
                },
                {
                    "internalType": "address",
                    "name": "tokenAddr",
                    "type": "address"
                }
            ],
            "name": "tokenToTokenSwapOutput",
            "outputs": [
                {
                    "internalType": "uint256",
                    "name": "",
                    "type": "uint256"
                }
            ],
            "payable": false,
            "stateMutability": "nonpayable",
            "type": "function"
        },
        {
            "constant": false,
            "inputs": [
                {
                    "internalType": "uint256",
                    "name": "tokensSold",
                    "type": "uint256"
                },
                {
                    "internalType": "uint256",
                    "name": "minTokensBought",
                    "type": "uint256"
                },
                {
                    "internalType": "uint256",
                    "name": "minEthBought",
                    "type": "uint256"
                },
                {
                    "internalType": "uint256",
                    "name": "deadline",
                    "type": "uint256"
                },
                {
                    "internalType": "address",
                    "name": "recipient",
                    "type": "address"
                },
                {
                    "internalType": "address",
                    "name": "tokenAddr",
                    "type": "address"
                }
            ],
            "name": "tokenToTokenTransferInput",
            "outputs": [
                {
                    "internalType": "uint256",
                    "name": "",
                    "type": "uint256"
                }
            ],
            "payable": false,
            "stateMutability": "nonpayable",
            "type": "function"
        },
        {
            "constant": false,
            "inputs": [
                {
                    "internalType": "uint256",
                    "name": "tokensBought",
                    "type": "uint256"
                },
                {
                    "internalType": "uint256",
                    "name": "maxTokensSold",
                    "type": "uint256"
                },
                {
                    "internalType": "uint256",
                    "name": "maxEthSold",
                    "type": "uint256"
                },
                {
                    "internalType": "uint256",
                    "name": "deadline",
                    "type": "uint256"
                },
                {
                    "internalType": "address",
                    "name": "recipient",
                    "type": "address"
                },
                {
                    "internalType": "address",
                    "name": "tokenAddr",
                    "type": "address"
                }
            ],
            "name": "tokenToTokenTransferOutput",
            "outputs": [
                {
                    "internalType": "uint256",
                    "name": "",
                    "type": "uint256"
                }
            ],
            "payable": false,
            "stateMutability": "nonpayable",
            "type": "function"
        },
        {
            "constant": true,
            "inputs": [],
            "name": "totalSupply",
            "outputs": [
                {
                    "internalType": "uint256",
                    "name": "",
                    "type": "uint256"
                }
            ],
            "payable": false,
            "stateMutability": "view",
            "type": "function"
        },
        {
            "constant": false,
            "inputs": [
                {
                    "internalType": "address",
                    "name": "to",
                    "type": "address"
                },
                {
                    "internalType": "uint256",
                    "name": "value",
                    "type": "uint256"
                }
            ],
            "name": "transfer",
            "outputs": [
                {
                    "internalType": "bool",
                    "name": "",
                    "type": "bool"
                }
            ],
            "payable": false,
            "stateMutability": "nonpayable",
            "type": "function"
        },
        {
            "constant": false,
            "inputs": [
                {
                    "internalType": "address",
                    "name": "from",
                    "type": "address"
                },
                {
                    "internalType": "address",
                    "name": "to",
                    "type": "address"
                },
                {
                    "internalType": "uint256",
                    "name": "value",
                    "type": "uint256"
                }
            ],
            "name": "transferFrom",
            "outputs": [
                {
                    "internalType": "bool",
                    "name": "",
                    "type": "bool"
                }
            ],
            "payable": false,
            "stateMutability": "nonpayable",
            "type": "function"
        }
    ],
    "bytecode": "60806040526007805460ff60a01b191690553480156200001e57600080fd5b5060405162002b8638038062002b86833981810160405260208110156200004457600080fd5b505160078054336001600160a01b031991821617909155600680549091166001600160a01b03831617905560408051808201909152600a808252692ab734b9bbb0b8102b1960b11b6020909201918252620000a291600391620000df565b50604080518082019091526006808252652aa72496ab1960d11b6020909201918252620000d291600491620000df565b5050601260055562000184565b828054600181600116156101000203166002900490600052602060002090601f016020900481019282601f106200012257805160ff191683800117855562000152565b8280016001018555821562000152579182015b828111156200015257825182559160200191906001019062000135565b506200016092915062000164565b5090565b6200018191905b808211156200016057600081556001016200016b565b90565b6129f280620001946000396000f3fe6080604052600436106101e35760003560e01c806395d89b4111610102578063d4e4841d11610095578063f3c0efe911610064578063f3c0efe9146107b5578063f552d91b14610808578063f88bf15a1461085b578063fd11c223146108b0576101e3565b8063d4e4841d146106c7578063dd62ed3e1461070c578063ddf7e1a714610747578063f39b5b9b14610792576101e3565b8063a9059cbb116100d1578063a9059cbb146105e7578063ad65d76d14610620578063b040d54514610652578063cd7724c31461069d576101e3565b806395d89b411461055657806395e3c50b1461056b578063966dae0e146105a15780639d76ea58146105d2576101e3565b8063422f10431161017a57806370a082311161014957806370a082311461047e5780637237e031146104b157806389f2a871146104f657806395b68fe71461052c576101e3565b8063422f1043146103dc57806342966c681461040557806359e94862146104315780636b1d4db71461045b576101e3565b806318160ddd116101b657806318160ddd1461034557806323b872dd1461035a5780632640f62c1461039d578063313ce567146103c7576101e3565b8063013efd8b146101f457806306fdde031461023c578063095ea7b3146102c65780630b57363814610313575b6101f13460014233336108e6565b50005b34801561020057600080fd5b5061022a6004803603606081101561021757600080fd5b5080359060208101359060400135610ab7565b60408051918252519081900360200190f35b34801561024857600080fd5b50610251610ace565b6040805160208082528351818301528351919283929083019185019080838360005b8381101561028b578181015183820152602001610273565b50505050905090810190601f1680156102b85780820380516001836020036101000a031916815260200191505b509250505060405180910390f35b3480156102d257600080fd5b506102ff600480360360408110156102e957600080fd5b506001600160a01b038135169060200135610b5c565b604080519115158252519081900360200190f35b61022a6004803603606081101561032957600080fd5b50803590602081013590604001356001600160a01b0316610bc3565b34801561035157600080fd5b5061022a610bfc565b34801561036657600080fd5b506102ff6004803603606081101561037d57600080fd5b506001600160a01b03813581169160208101359091169060400135610c02565b3480156103a957600080fd5b5061022a600480360360208110156103c057600080fd5b5035610d33565b3480156103d357600080fd5b5061022a610dcc565b61022a600480360360608110156103f257600080fd5b5080359060208101359060400135610dd2565b34801561041157600080fd5b5061042f6004803603602081101561042857600080fd5b5035611290565b005b34801561043d57600080fd5b5061022a6004803603602081101561045457600080fd5b50356112ff565b61022a6004803603604081101561047157600080fd5b5080359060200135611393565b34801561048a57600080fd5b5061022a600480360360208110156104a157600080fd5b50356001600160a01b03166113a2565b3480156104bd57600080fd5b5061022a600480360360808110156104d457600080fd5b50803590602081013590604081013590606001356001600160a01b03166113b4565b34801561050257600080fd5b5061022a6004803603606081101561051957600080fd5b50803590602081013590604001356113f6565b34801561053857600080fd5b5061022a6004803603602081101561054f57600080fd5b50356114ad565b34801561056257600080fd5b50610251611541565b34801561057757600080fd5b5061022a6004803603606081101561058e57600080fd5b508035906020810135906040013561159c565b3480156105ad57600080fd5b506105b66115ab565b604080516001600160a01b039092168252519081900360200190f35b3480156105de57600080fd5b506105b66115ba565b3480156105f357600080fd5b506102ff6004803603604081101561060a57600080fd5b506001600160a01b0381351690602001356115c9565b61022a6004803603606081101561063657600080fd5b50803590602081013590604001356001600160a01b0316611665565b34801561065e57600080fd5b5061022a600480360360a081101561067557600080fd5b50803590602081013590604081013590606081013590608001356001600160a01b031661169e565b3480156106a957600080fd5b5061022a600480360360208110156106c057600080fd5b5035611735565b3480156106d357600080fd5b5061022a600480360360808110156106ea57600080fd5b50803590602081013590604081013590606001356001600160a01b03166117c7565b34801561071857600080fd5b5061022a6004803603604081101561072f57600080fd5b506001600160a01b0381358116916020013516611800565b34801561075357600080fd5b5061022a600480360360a081101561076a57600080fd5b50803590602081013590604081013590606081013590608001356001600160a01b031661181d565b61022a600480360360408110156107a857600080fd5b50803590602001356118a9565b3480156107c157600080fd5b5061022a600480360360c08110156107d857600080fd5b508035906020810135906040810135906060810135906001600160a01b03608082013581169160a00135166118b8565b34801561081457600080fd5b5061022a600480360360c081101561082b57600080fd5b508035906020810135906040810135906060810135906001600160a01b03608082013581169160a0013516611950565b34801561086757600080fd5b506108976004803603608081101561087e57600080fd5b50803590602081013590604081013590606001356119dc565b6040805192835260208301919091528051918290030190f35b3480156108bc57600080fd5b5061022a600480360360608110156108d357600080fd5b5080359060208101359060400135611c7f565b600754600090600160a01b900460ff161561090057600080fd5b6007805460ff60a01b1916600160a01b1790554284108015906109235750600086115b801561092f5750600085115b61093857600080fd5b600654604080516370a0823160e01b815230600482015290516000926001600160a01b0316916370a08231916024808301926020929190829003018186803b15801561098357600080fd5b505afa158015610997573d6000803e3d6000fd5b505050506040513d60208110156109ad57600080fd5b5051905060006109cd886109c7478263ffffffff611cf116565b846113f6565b9050868110156109dc57600080fd5b6006546040805163a9059cbb60e01b81526001600160a01b038781166004830152602482018590529151919092169163a9059cbb9160448083019260209291908290030181600087803b158015610a3257600080fd5b505af1158015610a46573d6000803e3d6000fd5b505050506040513d6020811015610a5c57600080fd5b5051610a6757600080fd5b8088866001600160a01b03167fcd60aa75dea3072fbc07ae6d7d856b5dc5f4eee88854f5b4abf7b680ef8bc50f60405160405180910390a46007805460ff60a01b19169055979650505050505050565b6000610ac68484843333611d4e565b949350505050565b6003805460408051602060026001851615610100026000190190941693909304601f81018490048402820184019092528181529291830182828015610b545780601f10610b2957610100808354040283529160200191610b54565b820191906000526020600020905b815481529060010190602001808311610b3757829003601f168201915b505050505081565b3360008181526001602090815260408083206001600160a01b038716808552908352818420869055815186815291519394909390927f8c5be1e5ebec7d5bd14f71427d1e84f3dd0314c0f7b2291e5b200ac8c7c3b925928290030190a35060015b92915050565b60006001600160a01b0382163014801590610be657506001600160a01b03821615155b610bef57600080fd5b610ac68434853386611f2f565b60025481565b6001600160a01b03831660009081526001602090815260408083203384529091528120546000191115610c88576001600160a01b0384166000908152600160209081526040808320338452909152902054610c63908363ffffffff611cf116565b6001600160a01b03851660009081526001602090815260408083203384529091529020555b6001600160a01b038416600090815260208190526040902054610cb1908363ffffffff611cf116565b6001600160a01b038086166000908152602081905260408082209390935590851681522054610ce6908363ffffffff61214616565b6001600160a01b0380851660008181526020818152604091829020949094558051868152905191939288169260008051602061297e83398151915292918290030190a35060019392505050565b6000808211610d4157600080fd5b600654604080516370a0823160e01b815230600482015290516000926001600160a01b0316916370a08231916024808301926020929190829003018186803b158015610d8c57600080fd5b505afa158015610da0573d6000803e3d6000fd5b505050506040513d6020811015610db657600080fd5b50519050610dc5838247611c7f565b9392505050565b60055481565b600754600090600160a01b900460ff1615610dec57600080fd5b6007805460ff60a01b1916600160a01b179055428210801590610e0f5750600083115b8015610e1b5750600034115b610e5c576040805162461bcd60e51b815260206004820152600d60248201526c1253959053125117d253941555609a1b604482015290519081900360640190fd5b600254801561109a5760008511610e7257600080fd5b6000610e84473463ffffffff611cf116565b600654604080516370a0823160e01b815230600482015290519293506000926001600160a01b03909216916370a0823191602480820192602092909190829003018186803b158015610ed557600080fd5b505afa158015610ee9573d6000803e3d6000fd5b505050506040513d6020811015610eff57600080fd5b505190506000610f2f600184610f1b348663ffffffff6121a016565b81610f2257fe5b049063ffffffff61214616565b9050600083610f44348763ffffffff6121a016565b81610f4b57fe5b049050818810158015610f5e5750888110155b610f6757600080fd5b33600090815260208190526040902054610f87908263ffffffff61214616565b33600090815260208190526040902055610fa7858263ffffffff61214616565b600255600654604080516323b872dd60e01b81523360048201523060248201526044810185905290516001600160a01b03909216916323b872dd916064808201926020929091908290030181600087803b15801561100457600080fd5b505af1158015611018573d6000803e3d6000fd5b505050506040513d602081101561102e57600080fd5b505161103957600080fd5b6040518290349033907f06239653922ac7bea6aa2b19dc486b9361821d37712eb796adfd38d81de278ca90600090a4604080518281529051339160009160008051602061297e8339815191529181900360200190a3945061127c9350505050565b633b9aca003410156110e3576040805162461bcd60e51b815260206004820152600d60248201526c494e56414c49445f56414c554560981b604482015290519081900360640190fd5b600754600654604080516303795fb160e11b81526001600160a01b03928316600482015290513093909216916306f2bf6291602480820192602092909190829003018186803b15801561113557600080fd5b505afa158015611149573d6000803e3d6000fd5b505050506040513d602081101561115f57600080fd5b50516001600160a01b03161461117457600080fd5b4760028190553360008181526020818152604080832085905560065481516323b872dd60e01b81526004810195909552306024860152604485018a905290518995946001600160a01b03909216936323b872dd93606480850194919392918390030190829087803b1580156111e857600080fd5b505af11580156111fc573d6000803e3d6000fd5b505050506040513d602081101561121257600080fd5b505161121d57600080fd5b6040518290349033907f06239653922ac7bea6aa2b19dc486b9361821d37712eb796adfd38d81de278ca90600090a4604080518281529051339160009160008051602061297e8339815191529181900360200190a3925061127c915050565b6007805460ff60a01b191690559392505050565b6002546112a3908263ffffffff611cf116565b600255336000908152602081905260409020546112c6908263ffffffff611cf116565b336000818152602081815260408083209490945583518581529351919360008051602061297e833981519152929081900390910190a350565b600080821161130d57600080fd5b600654604080516370a0823160e01b815230600482015290516000926001600160a01b0316916370a08231916024808301926020929190829003018186803b15801561135857600080fd5b505afa15801561136c573d6000803e3d6000fd5b505050506040513d602081101561138257600080fd5b505190506000610ac6844784611c7f565b6000610dc58334843333611f2f565b60006020819052908152604090205481565b60006001600160a01b03821630148015906113d757506001600160a01b03821615155b6113e057600080fd5b6113ed85858533866121f9565b95945050505050565b600080831180156114075750600082115b611448576040805162461bcd60e51b815260206004820152600d60248201526c494e56414c49445f56414c554560981b604482015290519081900360640190fd5b600061145c856103e563ffffffff6121a016565b90506000611470828563ffffffff6121a016565b905060006114968361148a886103e863ffffffff6121a016565b9063ffffffff61214616565b90508082816114a157fe5b04979650505050505050565b60008082116114bb57600080fd5b600654604080516370a0823160e01b815230600482015290516000926001600160a01b0316916370a08231916024808301926020929190829003018186803b15801561150657600080fd5b505afa15801561151a573d6000803e3d6000fd5b505050506040513d602081101561153057600080fd5b505190506000610ac68483476113f6565b6004805460408051602060026001851615610100026000190190941693909304601f81018490048402820184019092528181529291830182828015610b545780601f10610b2957610100808354040283529160200191610b54565b6000610ac684848433336121f9565b6007546001600160a01b031690565b6006546001600160a01b031690565b336000908152602081905260408120546115e9908363ffffffff611cf116565b33600090815260208190526040808220929092556001600160a01b0385168152205461161b908363ffffffff61214616565b6001600160a01b0384166000818152602081815260409182902093909355805185815290519192339260008051602061297e8339815191529281900390910190a350600192915050565b60006001600160a01b038216301480159061168857506001600160a01b03821615155b61169157600080fd5b610ac634858533866108e6565b600754604080516303795fb160e11b81526001600160a01b0384811660048301529151600093849316916306f2bf62916024808301926020929190829003018186803b1580156116ed57600080fd5b505afa158015611701573d6000803e3d6000fd5b505050506040513d602081101561171757600080fd5b5051905061172a878787873380876123e6565b979650505050505050565b600080821161174357600080fd5b600654604080516370a0823160e01b815230600482015290516000926001600160a01b0316916370a08231916024808301926020929190829003018186803b15801561178e57600080fd5b505afa1580156117a2573d6000803e3d6000fd5b505050506040513d60208110156117b857600080fd5b50519050610dc58347836113f6565b60006001600160a01b03821630148015906117ea57506001600160a01b03821615155b6117f357600080fd5b6113ed8585853386611d4e565b600160209081526000928352604080842090915290825290205481565b600754604080516303795fb160e11b81526001600160a01b0384811660048301529151600093849316916306f2bf62916024808301926020929190829003018186803b15801561186c57600080fd5b505afa158015611880573d6000803e3d6000fd5b505050506040513d602081101561189657600080fd5b5051905061172a878787873380876126d3565b6000610dc534848433336108e6565b600754604080516303795fb160e11b81526001600160a01b0384811660048301529151600093849316916306f2bf62916024808301926020929190829003018186803b15801561190757600080fd5b505afa15801561191b573d6000803e3d6000fd5b505050506040513d602081101561193157600080fd5b50519050611944888888883389876123e6565b98975050505050505050565b600754604080516303795fb160e11b81526001600160a01b0384811660048301529151600093849316916306f2bf62916024808301926020929190829003018186803b15801561199f57600080fd5b505afa1580156119b3573d6000803e3d6000fd5b505050506040513d60208110156119c957600080fd5b50519050611944888888883389876126d3565b6007546000908190600160a01b900460ff16156119f857600080fd5b6007805460ff60a01b1916600160a01b1790558515801590611a1a5750428310155b8015611a265750600085115b8015611a325750600084115b611a3b57600080fd5b60025480611a4857600080fd5b600654604080516370a0823160e01b815230600482015290516000926001600160a01b0316916370a08231916024808301926020929190829003018186803b158015611a9357600080fd5b505afa158015611aa7573d6000803e3d6000fd5b505050506040513d6020811015611abd57600080fd5b50519050600082611ad48a4763ffffffff6121a016565b81611adb57fe5b049050600083611af18b8563ffffffff6121a016565b81611af857fe5b049050888210158015611b0b5750878110155b611b1457600080fd5b33600090815260208190526040902054611b34908b63ffffffff611cf116565b33600090815260208190526040902055611b54848b63ffffffff611cf116565b600255604051339083156108fc029084906000818181858888f19350505050158015611b84573d6000803e3d6000fd5b506006546040805163a9059cbb60e01b81523360048201526024810184905290516001600160a01b039092169163a9059cbb916044808201926020929091908290030181600087803b158015611bd957600080fd5b505af1158015611bed573d6000803e3d6000fd5b505050506040513d6020811015611c0357600080fd5b5051611c0e57600080fd5b6040518190839033907f0fbf06c058b90cb038a618f8c2acbf6145f8b3570fd1fa56abb8f0f3f05b36e890600090a4604080518b81529051600091339160008051602061297e8339815191529181900360200190a36007805460ff60a01b1916905590999098509650505050505050565b60008083118015611c905750600082115b611c9957600080fd5b6000611cbd6103e8611cb1868863ffffffff6121a016565b9063ffffffff6121a016565b90506000611cd76103e5611cb1868963ffffffff611cf116565b9050611ce76001828481610f2257fe5b9695505050505050565b600082821115611d48576040805162461bcd60e51b815260206004820152601e60248201527f536166654d6174683a207375627472616374696f6e206f766572666c6f770000604482015290519081900360640190fd5b50900390565b600754600090600160a01b900460ff1615611d6857600080fd5b6007805460ff60a01b1916600160a01b179055428410801590611d8b5750600086115b611d9457600080fd5b600654604080516370a0823160e01b815230600482015290516000926001600160a01b0316916370a08231916024808301926020929190829003018186803b158015611ddf57600080fd5b505afa158015611df3573d6000803e3d6000fd5b505050506040513d6020811015611e0957600080fd5b505190506000611e1a888347611c7f565b905080871015611e2957600080fd5b6040516001600160a01b0385169089156108fc02908a906000818181858888f19350505050158015611e5f573d6000803e3d6000fd5b50600654604080516323b872dd60e01b81526001600160a01b03888116600483015230602483015260448201859052915191909216916323b872dd9160648083019260209291908290030181600087803b158015611ebc57600080fd5b505af1158015611ed0573d6000803e3d6000fd5b505050506040513d6020811015611ee657600080fd5b5051611ef157600080fd5b8781866001600160a01b031660008051602061299e83398151915260405160405180910390a46007805460ff60a01b19169055979650505050505050565b600754600090600160a01b900460ff1615611f4957600080fd5b6007805460ff60a01b1916600160a01b179055428410801590611f6c5750600086115b8015611f785750600085115b611f8157600080fd5b600654604080516370a0823160e01b815230600482015290516000926001600160a01b0316916370a08231916024808301926020929190829003018186803b158015611fcc57600080fd5b505afa158015611fe0573d6000803e3d6000fd5b505050506040513d6020811015611ff657600080fd5b50519050600061201688612010478a63ffffffff611cf116565b84611c7f565b9050600061202a888363ffffffff611cf116565b9050801561206a576040516001600160a01b0387169082156108fc029083906000818181858888f19350505050158015612068573d6000803e3d6000fd5b505b6006546040805163a9059cbb60e01b81526001600160a01b038881166004830152602482018d90529151919092169163a9059cbb9160448083019260209291908290030181600087803b1580156120c057600080fd5b505af11580156120d4573d6000803e3d6000fd5b505050506040513d60208110156120ea57600080fd5b50516120f557600080fd5b8882876001600160a01b03167fcd60aa75dea3072fbc07ae6d7d856b5dc5f4eee88854f5b4abf7b680ef8bc50f60405160405180910390a4506007805460ff60a01b19169055979650505050505050565b600082820183811015610dc5576040805162461bcd60e51b815260206004820152601b60248201527f536166654d6174683a206164646974696f6e206f766572666c6f770000000000604482015290519081900360640190fd5b6000826121af57506000610bbd565b828202828482816121bc57fe5b0414610dc55760405162461bcd60e51b815260040180806020018281038252602181526020018061295d6021913960400191505060405180910390fd5b600754600090600160a01b900460ff161561221357600080fd5b6007805460ff60a01b1916600160a01b1790554284108015906122365750600086115b80156122425750600085115b61224b57600080fd5b600654604080516370a0823160e01b815230600482015290516000926001600160a01b0316916370a08231916024808301926020929190829003018186803b15801561229657600080fd5b505afa1580156122aa573d6000803e3d6000fd5b505050506040513d60208110156122c057600080fd5b5051905060006122d18883476113f6565b9050868110156122e057600080fd5b6040516001600160a01b0385169082156108fc029083906000818181858888f19350505050158015612316573d6000803e3d6000fd5b50600654604080516323b872dd60e01b81526001600160a01b038881166004830152306024830152604482018c9052915191909216916323b872dd9160648083019260209291908290030181600087803b15801561237357600080fd5b505af1158015612387573d6000803e3d6000fd5b505050506040513d602081101561239d57600080fd5b50516123a857600080fd5b8088866001600160a01b031660008051602061299e83398151915260405160405180910390a46007805460ff60a01b19169055979650505050505050565b600754600090600160a01b900460ff161561240057600080fd5b6007805460ff60a01b1916600160a01b17905542851080159061242e575060008811801561242e5750600086115b61243757600080fd5b6001600160a01b038216301480159061245857506001600160a01b03821615155b61246157600080fd5b6000826001600160a01b03166359e948628a6040518263ffffffff1660e01b81526004018082815260200191505060206040518083038186803b1580156124a757600080fd5b505afa1580156124bb573d6000803e3d6000fd5b505050506040513d60208110156124d157600080fd5b5051600654604080516370a0823160e01b815230600482015290519293506000926001600160a01b03909216916370a0823191602480820192602092909190829003018186803b15801561252457600080fd5b505afa158015612538573d6000803e3d6000fd5b505050506040513d602081101561254e57600080fd5b50519050600061255f838347611c7f565b9050808a101580156125715750828910155b61257a57600080fd5b600654604080516323b872dd60e01b81526001600160a01b038a8116600483015230602483015260448201859052915191909216916323b872dd9160648083019260209291908290030181600087803b1580156125d657600080fd5b505af11580156125ea573d6000803e3d6000fd5b505050506040513d602081101561260057600080fd5b505161260b57600080fd5b6040805163016ae6c760e31b8152600481018d9052602481018a90526001600160a01b038881166044830152915191871691630b573638918691606480830192602092919082900301818588803b15801561266557600080fd5b505af1158015612679573d6000803e3d6000fd5b50505050506040513d602081101561269057600080fd5b5050604051839082906001600160a01b038a169060008051602061299e83398151915290600090a46007805460ff60a01b191690559a9950505050505050505050565b600754600090600160a01b900460ff16156126ed57600080fd5b6007805460ff60a01b1916600160a01b1790554285108015906127105750600088115b801561271c5750600087115b80156127285750600086115b61273157600080fd5b6001600160a01b038216301480159061275257506001600160a01b03821615155b61275b57600080fd5b600654604080516370a0823160e01b815230600482015290516000926001600160a01b0316916370a08231916024808301926020929190829003018186803b1580156127a657600080fd5b505afa1580156127ba573d6000803e3d6000fd5b505050506040513d60208110156127d057600080fd5b5051905060006127e18a83476113f6565b9050878110156127f057600080fd5b600654604080516323b872dd60e01b81526001600160a01b038981166004830152306024830152604482018e9052915191909216916323b872dd9160648083019260209291908290030181600087803b15801561284c57600080fd5b505af1158015612860573d6000803e3d6000fd5b505050506040513d602081101561287657600080fd5b505161288157600080fd5b6000846001600160a01b031663ad65d76d838c8b8a6040518563ffffffff1660e01b815260040180848152602001838152602001826001600160a01b03166001600160a01b0316815260200193505050506020604051808303818588803b1580156128eb57600080fd5b505af11580156128ff573d6000803e3d6000fd5b50505050506040513d602081101561291657600080fd5b505160405190915082908c906001600160a01b038a169060008051602061299e83398151915290600090a46007805460ff60a01b191690559a995050505050505050505056fe536166654d6174683a206d756c7469706c69636174696f6e206f766572666c6f77ddf252ad1be2c89b69c2b068fc378daa952ba7f163c4a11628f55a4df523b3ef7f4091b46c33e918a0f3aa42307641d17bb67029427a5369e54b353984238705a265627a7a72315820f497160270e36bce1a37019eac9e103d33608b46fe530cd61c427c5fe141936264736f6c63430005110032",
    "sourcePath": "e:/uniswapPrac/contracts/UniswapETH.sol",
    "compiler": {
        "name": "solc",
        "version": "0.5.17+commit.d19bba13"
    },
    "functionHashes": {
        "addLiquidity(uint256,uint256,uint256)": "422f1043",
        "allowance(address,address)": "dd62ed3e",
        "approve(address,uint256)": "095ea7b3",
        "balanceOf(address)": "70a08231",
        "burn(uint256)": "42966c68",
        "decimals()": "313ce567",
        "ethToTokenSwapInput(uint256,uint256)": "f39b5b9b",
        "ethToTokenSwapOutput(uint256,uint256)": "6b1d4db7",
        "ethToTokenTransferInput(uint256,uint256,address)": "ad65d76d",
        "ethToTokenTransferOutput(uint256,uint256,address)": "0b573638",
        "factoryAddress()": "966dae0e",
        "getEthToTokenInputPrice(uint256)": "cd7724c3",
        "getEthToTokenOutputPrice(uint256)": "59e94862",
        "getInputPrice(uint256,uint256,uint256)": "89f2a871",
        "getOutputPrice(uint256,uint256,uint256)": "fd11c223",
        "getTokenToEthInputPrice(uint256)": "95b68fe7",
        "getTokenToEthOutputPrice(uint256)": "2640f62c",
        "name()": "06fdde03",
        "removeLiquidity(uint256,uint256,uint256,uint256)": "f88bf15a",
        "symbol()": "95d89b41",
        "tokenAddress()": "9d76ea58",
        "tokenToEthSwapInput(uint256,uint256,uint256)": "95e3c50b",
        "tokenToEthSwapOutput(uint256,uint256,uint256)": "013efd8b",
        "tokenToEthTransferInput(uint256,uint256,uint256,address)": "7237e031",
        "tokenToEthTransferOutput(uint256,uint256,uint256,address)": "d4e4841d",
        "tokenToTokenSwapInput(uint256,uint256,uint256,uint256,address)": "ddf7e1a7",
        "tokenToTokenSwapOutput(uint256,uint256,uint256,uint256,address)": "b040d545",
        "tokenToTokenTransferInput(uint256,uint256,uint256,uint256,address,address)": "f552d91b",
        "tokenToTokenTransferOutput(uint256,uint256,uint256,uint256,address,address)": "f3c0efe9",
        "totalSupply()": "18160ddd",
        "transfer(address,uint256)": "a9059cbb",
        "transferFrom(address,address,uint256)": "23b872dd"
    },
    "gasEstimates": {
        "creation": {
            "codeDepositCost": "2147600",
            "executionCost": "infinite",
            "totalCost": "infinite"
        },
        "external": {
            "": "infinite",
            "addLiquidity(uint256,uint256,uint256)": "infinite",
            "allowance(address,address)": "1284",
            "approve(address,uint256)": "22369",
            "balanceOf(address)": "1172",
            "burn(uint256)": "infinite",
            "decimals()": "1110",
            "ethToTokenSwapInput(uint256,uint256)": "infinite",
            "ethToTokenSwapOutput(uint256,uint256)": "infinite",
            "ethToTokenTransferInput(uint256,uint256,address)": "infinite",
            "ethToTokenTransferOutput(uint256,uint256,address)": "infinite",
            "factoryAddress()": "1127",
            "getEthToTokenInputPrice(uint256)": "infinite",
            "getEthToTokenOutputPrice(uint256)": "infinite",
            "getInputPrice(uint256,uint256,uint256)": "infinite",
            "getOutputPrice(uint256,uint256,uint256)": "infinite",
            "getTokenToEthInputPrice(uint256)": "infinite",
            "getTokenToEthOutputPrice(uint256)": "infinite",
            "name()": "infinite",
            "removeLiquidity(uint256,uint256,uint256,uint256)": "infinite",
            "symbol()": "infinite",
            "tokenAddress()": "1149",
            "tokenToEthSwapInput(uint256,uint256,uint256)": "infinite",
            "tokenToEthSwapOutput(uint256,uint256,uint256)": "infinite",
            "tokenToEthTransferInput(uint256,uint256,uint256,address)": "infinite",
            "tokenToEthTransferOutput(uint256,uint256,uint256,address)": "infinite",
            "tokenToTokenSwapInput(uint256,uint256,uint256,uint256,address)": "infinite",
            "tokenToTokenSwapOutput(uint256,uint256,uint256,uint256,address)": "infinite",
            "tokenToTokenTransferInput(uint256,uint256,uint256,uint256,address,address)": "infinite",
            "tokenToTokenTransferOutput(uint256,uint256,uint256,uint256,address,address)": "infinite",
            "totalSupply()": "1044",
            "transfer(address,uint256)": "infinite",
            "transferFrom(address,address,uint256)": "infinite"
        },
        "internal": {
            "ethToTokenInput(uint256,uint256,uint256,address,address)": "infinite",
            "ethToTokenOutput(uint256,uint256,uint256,address payable,address)": "infinite",
            "tokenToEthInput(uint256,uint256,uint256,address,address payable)": "infinite",
            "tokenToEthOutput(uint256,uint256,uint256,address,address payable)": "infinite",
            "tokenToTokenInput(uint256,uint256,uint256,uint256,address,address,address payable)": "infinite",
            "tokenToTokenOutput(uint256,uint256,uint256,uint256,address,address,address payable)": "infinite"
        }
    }
}